{
  "contractName": "Stock",
  "abi": [
    {
      "inputs": [],
      "stateMutability": "nonpayable",
      "type": "constructor"
    },
    {
      "inputs": [
        {
          "internalType": "bytes4",
          "name": "symbol",
          "type": "bytes4"
        },
        {
          "internalType": "uint256",
          "name": "price",
          "type": "uint256"
        },
        {
          "internalType": "uint256",
          "name": "volume",
          "type": "uint256"
        }
      ],
      "name": "setStock",
      "outputs": [],
      "stateMutability": "nonpayable",
      "type": "function"
    },
    {
      "inputs": [
        {
          "internalType": "bytes4",
          "name": "symbol",
          "type": "bytes4"
        }
      ],
      "name": "getStockPrice",
      "outputs": [
        {
          "internalType": "uint256",
          "name": "",
          "type": "uint256"
        }
      ],
      "stateMutability": "view",
      "type": "function"
    },
    {
      "inputs": [
        {
          "internalType": "bytes4",
          "name": "symbol",
          "type": "bytes4"
        }
      ],
      "name": "getStockVolume",
      "outputs": [
        {
          "internalType": "uint256",
          "name": "",
          "type": "uint256"
        }
      ],
      "stateMutability": "view",
      "type": "function"
    }
  ],
  "bytecode": "0x608060405234801561001057600080fd5b5033600160006101000a81548173ffffffffffffffffffffffffffffffffffffffff021916908373ffffffffffffffffffffffffffffffffffffffff1602179055506103c8806100616000396000f3fe608060405234801561001057600080fd5b50600436106100415760003560e01c80630b1dc17c146100465780638604e3db146100a7578063945aaa4414610108575b600080fd5b6100916004803603602081101561005c57600080fd5b8101908080357bffffffffffffffffffffffffffffffffffffffffffffffffffffffff19169060200190929190505050610169565b6040518082815260200191505060405180910390f35b6100f2600480360360208110156100bd57600080fd5b8101908080357bffffffffffffffffffffffffffffffffffffffffffffffffffffffff191690602001909291905050506101c6565b6040518082815260200191505060405180910390f35b6101676004803603606081101561011e57600080fd5b8101908080357bffffffffffffffffffffffffffffffffffffffffffffffffffffffff191690602001909291908035906020019092919080359060200190929190505050610223565b005b6000806000837bffffffffffffffffffffffffffffffffffffffffffffffffffffffff19167bffffffffffffffffffffffffffffffffffffffffffffffffffffffff19168152602001908152602001600020600101549050919050565b6000806000837bffffffffffffffffffffffffffffffffffffffffffffffffffffffff19167bffffffffffffffffffffffffffffffffffffffffffffffffffffffff19168152602001908152602001600020600001549050919050565b600160009054906101000a900473ffffffffffffffffffffffffffffffffffffffff1673ffffffffffffffffffffffffffffffffffffffff163373ffffffffffffffffffffffffffffffffffffffff16146102c9576040517f08c379a00000000000000000000000000000000000000000000000000000000081526004018080602001828103825260228152602001806103716022913960400191505060405180910390fd5b6102d1610356565b604051806040016040528084815260200183815250905080600080867bffffffffffffffffffffffffffffffffffffffffffffffffffffffff19167bffffffffffffffffffffffffffffffffffffffffffffffffffffffff19168152602001908152602001600020600082015181600001556020820151816001015590505050505050565b60405180604001604052806000815260200160008152509056fe4f6e6c79206f776e65722063616e2065786563757465207468697320616374696f6ea264697066735822122084985a4a719fccee2116fdc773459187ea50d6b87ecc3dd5dc88433274a6bec864736f6c63430007010033",
  "immutableReferences": {},
  "source": "// SPDX-License-Identifier: MIT\r\n\r\npragma solidity ^0.7.1;\r\n\r\ncontract Stock {\r\n    struct StockInfo {\r\n        uint256 price;\r\n        uint256 volume;\r\n    }\r\n\r\n    mapping(bytes4 => StockInfo) stockQuote;\r\n\r\n    address oracleOwner;\r\n\r\n    modifier onlyOwner() {\r\n        require(\r\n            msg.sender == oracleOwner,\r\n            \"Only owner can execute this action\"\r\n        );\r\n        _;\r\n    }\r\n\r\n    constructor() public {\r\n        oracleOwner = msg.sender;\r\n    }\r\n\r\n    function setStock(\r\n        bytes4 symbol,\r\n        uint256 price,\r\n        uint256 volume\r\n    ) public onlyOwner {\r\n        StockInfo memory newStock = StockInfo(price, volume);\r\n        stockQuote[symbol] = newStock;\r\n    }\r\n\r\n    function getStockPrice(bytes4 symbol) public view returns (uint256) {\r\n        return stockQuote[symbol].price;\r\n    }\r\n\r\n    function getStockVolume(bytes4 symbol) public view returns (uint256) {\r\n        return stockQuote[symbol].volume;\r\n    }\r\n}",
  "sourcePath": "C:/work/blockchain_course/semester2/design_patterns/final_project/smart_contract/contracts/Stock.sol",
  "compiler": {
    "name": "solc",
    "version": "0.7.1+commit.f4a555be.Emscripten.clang"
  },
  "schemaVersion": "3.3.3",
  "updatedAt": "2021-02-11T21:19:54.706Z",
  "devdoc": {
    "kind": "dev",
    "methods": {},
    "version": 1
  },
  "userdoc": {
    "kind": "user",
    "methods": {},
    "version": 1
  }
}