{
  "contractName": "SupplyChain",
  "abi": [
    {
      "inputs": [
        {
          "internalType": "string",
          "name": "_tokenURIBase",
          "type": "string"
        }
      ],
      "stateMutability": "nonpayable",
      "type": "constructor"
    },
    {
      "anonymous": false,
      "inputs": [
        {
          "indexed": true,
          "internalType": "address",
          "name": "_owner",
          "type": "address"
        },
        {
          "indexed": true,
          "internalType": "address",
          "name": "_approved",
          "type": "address"
        },
        {
          "indexed": true,
          "internalType": "uint256",
          "name": "_tokenId",
          "type": "uint256"
        }
      ],
      "name": "Approval",
      "type": "event"
    },
    {
      "anonymous": false,
      "inputs": [
        {
          "indexed": true,
          "internalType": "address",
          "name": "_owner",
          "type": "address"
        },
        {
          "indexed": true,
          "internalType": "address",
          "name": "_operator",
          "type": "address"
        },
        {
          "indexed": false,
          "internalType": "bool",
          "name": "_approved",
          "type": "bool"
        }
      ],
      "name": "ApprovalForAll",
      "type": "event"
    },
    {
      "anonymous": false,
      "inputs": [
        {
          "indexed": true,
          "internalType": "bytes32",
          "name": "role",
          "type": "bytes32"
        },
        {
          "indexed": true,
          "internalType": "bytes32",
          "name": "previousAdminRole",
          "type": "bytes32"
        },
        {
          "indexed": true,
          "internalType": "bytes32",
          "name": "newAdminRole",
          "type": "bytes32"
        }
      ],
      "name": "RoleAdminChanged",
      "type": "event"
    },
    {
      "anonymous": false,
      "inputs": [
        {
          "indexed": true,
          "internalType": "bytes32",
          "name": "role",
          "type": "bytes32"
        },
        {
          "indexed": true,
          "internalType": "address",
          "name": "account",
          "type": "address"
        },
        {
          "indexed": true,
          "internalType": "address",
          "name": "sender",
          "type": "address"
        }
      ],
      "name": "RoleGranted",
      "type": "event"
    },
    {
      "anonymous": false,
      "inputs": [
        {
          "indexed": true,
          "internalType": "bytes32",
          "name": "role",
          "type": "bytes32"
        },
        {
          "indexed": true,
          "internalType": "address",
          "name": "account",
          "type": "address"
        },
        {
          "indexed": true,
          "internalType": "address",
          "name": "sender",
          "type": "address"
        }
      ],
      "name": "RoleRevoked",
      "type": "event"
    },
    {
      "anonymous": false,
      "inputs": [
        {
          "indexed": true,
          "internalType": "address",
          "name": "_from",
          "type": "address"
        },
        {
          "indexed": true,
          "internalType": "address",
          "name": "_to",
          "type": "address"
        },
        {
          "indexed": true,
          "internalType": "uint256",
          "name": "_tokenId",
          "type": "uint256"
        }
      ],
      "name": "Transfer",
      "type": "event"
    },
    {
      "inputs": [],
      "name": "DEFAULT_ADMIN_ROLE",
      "outputs": [
        {
          "internalType": "bytes32",
          "name": "",
          "type": "bytes32"
        }
      ],
      "stateMutability": "view",
      "type": "function"
    },
    {
      "inputs": [],
      "name": "DISTRIBUTOR_ROLE",
      "outputs": [
        {
          "internalType": "bytes32",
          "name": "",
          "type": "bytes32"
        }
      ],
      "stateMutability": "view",
      "type": "function"
    },
    {
      "inputs": [],
      "name": "MANUFACTURER_ROLE",
      "outputs": [
        {
          "internalType": "bytes32",
          "name": "",
          "type": "bytes32"
        }
      ],
      "stateMutability": "view",
      "type": "function"
    },
    {
      "inputs": [],
      "name": "TRANSPORT_ROLE",
      "outputs": [
        {
          "internalType": "bytes32",
          "name": "",
          "type": "bytes32"
        }
      ],
      "stateMutability": "view",
      "type": "function"
    },
    {
      "inputs": [],
      "name": "admin",
      "outputs": [
        {
          "internalType": "address",
          "name": "",
          "type": "address"
        }
      ],
      "stateMutability": "view",
      "type": "function"
    },
    {
      "inputs": [
        {
          "internalType": "address",
          "name": "_approved",
          "type": "address"
        },
        {
          "internalType": "uint256",
          "name": "_tokenId",
          "type": "uint256"
        }
      ],
      "name": "approve",
      "outputs": [],
      "stateMutability": "payable",
      "type": "function"
    },
    {
      "inputs": [
        {
          "internalType": "address",
          "name": "_owner",
          "type": "address"
        }
      ],
      "name": "balanceOf",
      "outputs": [
        {
          "internalType": "uint256",
          "name": "",
          "type": "uint256"
        }
      ],
      "stateMutability": "view",
      "type": "function"
    },
    {
      "inputs": [
        {
          "internalType": "uint256",
          "name": "_tokenId",
          "type": "uint256"
        }
      ],
      "name": "getApproved",
      "outputs": [
        {
          "internalType": "address",
          "name": "",
          "type": "address"
        }
      ],
      "stateMutability": "view",
      "type": "function"
    },
    {
      "inputs": [
        {
          "internalType": "bytes32",
          "name": "role",
          "type": "bytes32"
        }
      ],
      "name": "getRoleAdmin",
      "outputs": [
        {
          "internalType": "bytes32",
          "name": "",
          "type": "bytes32"
        }
      ],
      "stateMutability": "view",
      "type": "function"
    },
    {
      "inputs": [
        {
          "internalType": "bytes32",
          "name": "role",
          "type": "bytes32"
        },
        {
          "internalType": "uint256",
          "name": "index",
          "type": "uint256"
        }
      ],
      "name": "getRoleMember",
      "outputs": [
        {
          "internalType": "address",
          "name": "",
          "type": "address"
        }
      ],
      "stateMutability": "view",
      "type": "function"
    },
    {
      "inputs": [
        {
          "internalType": "bytes32",
          "name": "role",
          "type": "bytes32"
        }
      ],
      "name": "getRoleMemberCount",
      "outputs": [
        {
          "internalType": "uint256",
          "name": "",
          "type": "uint256"
        }
      ],
      "stateMutability": "view",
      "type": "function"
    },
    {
      "inputs": [
        {
          "internalType": "bytes32",
          "name": "role",
          "type": "bytes32"
        },
        {
          "internalType": "address",
          "name": "account",
          "type": "address"
        }
      ],
      "name": "grantRole",
      "outputs": [],
      "stateMutability": "nonpayable",
      "type": "function"
    },
    {
      "inputs": [
        {
          "internalType": "bytes32",
          "name": "role",
          "type": "bytes32"
        },
        {
          "internalType": "address",
          "name": "account",
          "type": "address"
        }
      ],
      "name": "hasRole",
      "outputs": [
        {
          "internalType": "bool",
          "name": "",
          "type": "bool"
        }
      ],
      "stateMutability": "view",
      "type": "function"
    },
    {
      "inputs": [
        {
          "internalType": "address",
          "name": "_owner",
          "type": "address"
        },
        {
          "internalType": "address",
          "name": "_operator",
          "type": "address"
        }
      ],
      "name": "isApprovedForAll",
      "outputs": [
        {
          "internalType": "bool",
          "name": "",
          "type": "bool"
        }
      ],
      "stateMutability": "view",
      "type": "function"
    },
    {
      "inputs": [
        {
          "internalType": "uint256",
          "name": "_tokenId",
          "type": "uint256"
        }
      ],
      "name": "ownerOf",
      "outputs": [
        {
          "internalType": "address",
          "name": "",
          "type": "address"
        }
      ],
      "stateMutability": "view",
      "type": "function"
    },
    {
      "inputs": [
        {
          "internalType": "bytes32",
          "name": "role",
          "type": "bytes32"
        },
        {
          "internalType": "address",
          "name": "account",
          "type": "address"
        }
      ],
      "name": "renounceRole",
      "outputs": [],
      "stateMutability": "nonpayable",
      "type": "function"
    },
    {
      "inputs": [
        {
          "internalType": "bytes32",
          "name": "role",
          "type": "bytes32"
        },
        {
          "internalType": "address",
          "name": "account",
          "type": "address"
        }
      ],
      "name": "revokeRole",
      "outputs": [],
      "stateMutability": "nonpayable",
      "type": "function"
    },
    {
      "inputs": [
        {
          "internalType": "address",
          "name": "_from",
          "type": "address"
        },
        {
          "internalType": "address",
          "name": "_to",
          "type": "address"
        },
        {
          "internalType": "uint256",
          "name": "_tokenId",
          "type": "uint256"
        }
      ],
      "name": "safeTransferFrom",
      "outputs": [],
      "stateMutability": "payable",
      "type": "function"
    },
    {
      "inputs": [
        {
          "internalType": "address",
          "name": "_from",
          "type": "address"
        },
        {
          "internalType": "address",
          "name": "_to",
          "type": "address"
        },
        {
          "internalType": "uint256",
          "name": "_tokenId",
          "type": "uint256"
        },
        {
          "internalType": "bytes",
          "name": "data",
          "type": "bytes"
        }
      ],
      "name": "safeTransferFrom",
      "outputs": [],
      "stateMutability": "payable",
      "type": "function"
    },
    {
      "inputs": [
        {
          "internalType": "address",
          "name": "_operator",
          "type": "address"
        },
        {
          "internalType": "bool",
          "name": "_approved",
          "type": "bool"
        }
      ],
      "name": "setApprovalForAll",
      "outputs": [],
      "stateMutability": "nonpayable",
      "type": "function"
    },
    {
      "inputs": [
        {
          "internalType": "uint256",
          "name": "_tokenId",
          "type": "uint256"
        }
      ],
      "name": "tokenURI",
      "outputs": [
        {
          "internalType": "string",
          "name": "",
          "type": "string"
        }
      ],
      "stateMutability": "view",
      "type": "function"
    },
    {
      "inputs": [],
      "name": "tokenURIBase",
      "outputs": [
        {
          "internalType": "string",
          "name": "",
          "type": "string"
        }
      ],
      "stateMutability": "view",
      "type": "function"
    },
    {
      "inputs": [
        {
          "internalType": "address",
          "name": "_from",
          "type": "address"
        },
        {
          "internalType": "address",
          "name": "_to",
          "type": "address"
        },
        {
          "internalType": "uint256",
          "name": "_tokenId",
          "type": "uint256"
        }
      ],
      "name": "transferFrom",
      "outputs": [],
      "stateMutability": "payable",
      "type": "function"
    },
    {
      "inputs": [
        {
          "internalType": "address",
          "name": "manufacturer",
          "type": "address"
        }
      ],
      "name": "addManufacturer",
      "outputs": [],
      "stateMutability": "nonpayable",
      "type": "function"
    },
    {
      "inputs": [
        {
          "internalType": "address",
          "name": "transporter",
          "type": "address"
        }
      ],
      "name": "addTransporter",
      "outputs": [],
      "stateMutability": "nonpayable",
      "type": "function"
    },
    {
      "inputs": [
        {
          "internalType": "address",
          "name": "distributor",
          "type": "address"
        }
      ],
      "name": "addDistributor",
      "outputs": [],
      "stateMutability": "nonpayable",
      "type": "function"
    },
    {
      "inputs": [
        {
          "internalType": "string",
          "name": "_manufacturer",
          "type": "string"
        },
        {
          "internalType": "bytes6",
          "name": "_serialno",
          "type": "bytes6"
        },
        {
          "internalType": "int16",
          "name": "_thermal",
          "type": "int16"
        },
        {
          "internalType": "bytes26",
          "name": "_location",
          "type": "bytes26"
        }
      ],
      "name": "makeVaccine",
      "outputs": [],
      "stateMutability": "nonpayable",
      "type": "function"
    },
    {
      "inputs": [
        {
          "internalType": "uint256",
          "name": "_id",
          "type": "uint256"
        }
      ],
      "name": "orderVaccine",
      "outputs": [],
      "stateMutability": "nonpayable",
      "type": "function"
    },
    {
      "inputs": [
        {
          "internalType": "uint256",
          "name": "_id",
          "type": "uint256"
        },
        {
          "internalType": "int16",
          "name": "_thermal",
          "type": "int16"
        },
        {
          "internalType": "bytes26",
          "name": "_location",
          "type": "bytes26"
        }
      ],
      "name": "thermalMonitor",
      "outputs": [],
      "stateMutability": "nonpayable",
      "type": "function"
    },
    {
      "inputs": [
        {
          "internalType": "uint256",
          "name": "_id",
          "type": "uint256"
        },
        {
          "internalType": "address",
          "name": "_to",
          "type": "address"
        },
        {
          "internalType": "int16",
          "name": "_thermal",
          "type": "int16"
        },
        {
          "internalType": "bytes26",
          "name": "_location",
          "type": "bytes26"
        }
      ],
      "name": "transferVaccine",
      "outputs": [],
      "stateMutability": "nonpayable",
      "type": "function"
    },
    {
      "inputs": [
        {
          "internalType": "uint256",
          "name": "_id",
          "type": "uint256"
        }
      ],
      "name": "getVaccineTrackingInfo",
      "outputs": [
        {
          "internalType": "int16",
          "name": "",
          "type": "int16"
        },
        {
          "internalType": "bytes26",
          "name": "",
          "type": "bytes26"
        },
        {
          "internalType": "address",
          "name": "",
          "type": "address"
        }
      ],
      "stateMutability": "view",
      "type": "function"
    }
  ],
  "bytecode": "0x60806040523480156200001157600080fd5b5060405162002fe538038062002fe5833981810160405260208110156200003757600080fd5b81019080805160405193929190846401000000008211156200005857600080fd5b838201915060208201858111156200006f57600080fd5b82518660018202830111640100000000821117156200008d57600080fd5b8083526020830192505050908051906020019080838360005b83811015620000c3578082015181840152602081019050620000a6565b50505050905090810190601f168015620000f15780820380516001836020036101000a031916815260200191505b50604052505050808060059080519060200190620001119291906200015b565b505033600760006101000a81548173ffffffffffffffffffffffffffffffffffffffff021916908373ffffffffffffffffffffffffffffffffffffffff1602179055505062000201565b828054600181600116156101000203166002900490600052602060002090601f016020900481019282601f106200019e57805160ff1916838001178555620001cf565b82800160010185558215620001cf579182015b82811115620001ce578251825591602001919060010190620001b1565b5b509050620001de9190620001e2565b5090565b5b80821115620001fd576000816000905550600101620001e3565b5090565b612dd480620002116000396000f3fe6080604052600436106101d85760003560e01c80639010d07c11610102578063b88d4fde11610095578063da211ba611610064578063da211ba614610cbd578063e985e9c514610d3c578063f0bd87cc14610dc3578063f851a44014610dee576101d8565b8063b88d4fde14610a9c578063c87b56dd14610b5f578063ca15c87314610c13578063d547741f14610c62576101d8565b8063a217fddf116100d1578063a217fddf14610988578063a22cb465146109b3578063b6316a7814610a10578063b702204914610a4b576101d8565b80639010d07c1461085257806391d14854146108c1578063965288b0146109325780639bc13dd31461095d576101d8565b806336568abe1161017a57806370a082311161014957806370a08231146106325780637250e224146106975780637a898486146106e85780637d64f11e14610743576101d8565b806336568abe146104b357806342842e0e1461050e5780635f8a5afa1461057c5780636352211e146105cd576101d8565b806323b872dd116101b657806323b872dd1461030b578063248a9ca314610379578063261220a3146103c85780632f2ff15d14610458576101d8565b8063081812fc146101dd578063095ea7b3146102425780630a13cac914610290575b600080fd5b3480156101e957600080fd5b506102166004803603602081101561020057600080fd5b8101908080359060200190929190505050610e2f565b604051808273ffffffffffffffffffffffffffffffffffffffff16815260200191505060405180910390f35b61028e6004803603604081101561025857600080fd5b81019080803573ffffffffffffffffffffffffffffffffffffffff16906020019092919080359060200190929190505050610e6c565b005b34801561029c57600080fd5b50610309600480360360808110156102b357600080fd5b8101908080359060200190929190803573ffffffffffffffffffffffffffffffffffffffff169060200190929190803560010b9060200190929190803565ffffffffffff19169060200190929190505050610e7a565b005b6103776004803603606081101561032157600080fd5b81019080803573ffffffffffffffffffffffffffffffffffffffff169060200190929190803573ffffffffffffffffffffffffffffffffffffffff16906020019092919080359060200190929190505050610fb2565b005b34801561038557600080fd5b506103b26004803603602081101561039c57600080fd5b8101908080359060200190929190505050610fc2565b6040518082815260200191505060405180910390f35b3480156103d457600080fd5b506103dd610fe2565b6040518080602001828103825283818151815260200191508051906020019080838360005b8381101561041d578082015181840152602081019050610402565b50505050905090810190601f16801561044a5780820380516001836020036101000a031916815260200191505b509250505060405180910390f35b34801561046457600080fd5b506104b16004803603604081101561047b57600080fd5b8101908080359060200190929190803573ffffffffffffffffffffffffffffffffffffffff169060200190929190505050611080565b005b3480156104bf57600080fd5b5061050c600480360360408110156104d657600080fd5b8101908080359060200190929190803573ffffffffffffffffffffffffffffffffffffffff16906020019092919050505061110a565b005b61057a6004803603606081101561052457600080fd5b81019080803573ffffffffffffffffffffffffffffffffffffffff169060200190929190803573ffffffffffffffffffffffffffffffffffffffff169060200190929190803590602001909291905050506111a3565b005b34801561058857600080fd5b506105cb6004803603602081101561059f57600080fd5b81019080803573ffffffffffffffffffffffffffffffffffffffff1690602001909291905050506111c3565b005b3480156105d957600080fd5b50610606600480360360208110156105f057600080fd5b81019080803590602001909291905050506112b3565b604051808273ffffffffffffffffffffffffffffffffffffffff16815260200191505060405180910390f35b34801561063e57600080fd5b506106816004803603602081101561065557600080fd5b81019080803573ffffffffffffffffffffffffffffffffffffffff1690602001909291905050506112f0565b6040518082815260200191505060405180910390f35b3480156106a357600080fd5b506106e6600480360360208110156106ba57600080fd5b81019080803573ffffffffffffffffffffffffffffffffffffffff169060200190929190505050611338565b005b3480156106f457600080fd5b506107416004803603606081101561070b57600080fd5b8101908080359060200190929190803560010b9060200190929190803565ffffffffffff19169060200190929190505050611428565b005b34801561074f57600080fd5b506108506004803603608081101561076657600080fd5b810190808035906020019064010000000081111561078357600080fd5b82018360208201111561079557600080fd5b803590602001918460018302840111640100000000831117156107b757600080fd5b91908080601f016020809104026020016040519081016040528093929190818152602001838380828437600081840152601f19601f820116905080830192505050505050509192919290803579ffffffffffffffffffffffffffffffffffffffffffffffffffff19169060200190929190803560010b9060200190929190803565ffffffffffff191690602001909291905050506115f0565b005b34801561085e57600080fd5b506108956004803603604081101561087557600080fd5b81019080803590602001909291908035906020019092919050505061182b565b604051808273ffffffffffffffffffffffffffffffffffffffff16815260200191505060405180910390f35b3480156108cd57600080fd5b5061091a600480360360408110156108e457600080fd5b8101908080359060200190929190803573ffffffffffffffffffffffffffffffffffffffff16906020019092919050505061185d565b60405180821515815260200191505060405180910390f35b34801561093e57600080fd5b5061094761188f565b6040518082815260200191505060405180910390f35b34801561096957600080fd5b506109726118b3565b6040518082815260200191505060405180910390f35b34801561099457600080fd5b5061099d6118d7565b6040518082815260200191505060405180910390f35b3480156109bf57600080fd5b50610a0e600480360360408110156109d657600080fd5b81019080803573ffffffffffffffffffffffffffffffffffffffff1690602001909291908035151590602001909291905050506118de565b005b348015610a1c57600080fd5b50610a4960048036036020811015610a3357600080fd5b81019080803590602001909291905050506119dd565b005b348015610a5757600080fd5b50610a9a60048036036020811015610a6e57600080fd5b81019080803573ffffffffffffffffffffffffffffffffffffffff169060200190929190505050611ad1565b005b610b5d60048036036080811015610ab257600080fd5b81019080803573ffffffffffffffffffffffffffffffffffffffff169060200190929190803573ffffffffffffffffffffffffffffffffffffffff1690602001909291908035906020019092919080359060200190640100000000811115610b1957600080fd5b820183602082011115610b2b57600080fd5b80359060200191846001830284011164010000000083111715610b4d57600080fd5b9091929391929390505050611bc1565b005b348015610b6b57600080fd5b50610b9860048036036020811015610b8257600080fd5b8101908080359060200190929190505050611c18565b6040518080602001828103825283818151815260200191508051906020019080838360005b83811015610bd8578082015181840152602081019050610bbd565b50505050905090810190601f168015610c055780820380516001836020036101000a031916815260200191505b509250505060405180910390f35b348015610c1f57600080fd5b50610c4c60048036036020811015610c3657600080fd5b8101908080359060200190929190505050611c9d565b6040518082815260200191505060405180910390f35b348015610c6e57600080fd5b50610cbb60048036036040811015610c8557600080fd5b8101908080359060200190929190803573ffffffffffffffffffffffffffffffffffffffff169060200190929190505050611cc4565b005b348015610cc957600080fd5b50610cf660048036036020811015610ce057600080fd5b8101908080359060200190929190505050611d4e565b604051808460010b81526020018365ffffffffffff191681526020018273ffffffffffffffffffffffffffffffffffffffff168152602001935050505060405180910390f35b348015610d4857600080fd5b50610dab60048036036040811015610d5f57600080fd5b81019080803573ffffffffffffffffffffffffffffffffffffffff169060200190929190803573ffffffffffffffffffffffffffffffffffffffff169060200190929190505050611e6d565b60405180821515815260200191505060405180910390f35b348015610dcf57600080fd5b50610dd8611f01565b6040518082815260200191505060405180910390f35b348015610dfa57600080fd5b50610e03611f25565b604051808273ffffffffffffffffffffffffffffffffffffffff16815260200191505060405180910390f35b60006002600083815260200190815260200160002060009054906101000a900473ffffffffffffffffffffffffffffffffffffffff169050919050565b610e768282611f4b565b5050565b833373ffffffffffffffffffffffffffffffffffffffff16610e9b826112b3565b73ffffffffffffffffffffffffffffffffffffffff1614610f24576040517f08c379a00000000000000000000000000000000000000000000000000000000081526004018080602001828103825260198152602001807f43616c6c6572206973206e6f74206120746865204f776e65720000000000000081525060200191505060405180910390fd5b826008600087815260200190815260200160002060020160066101000a81548161ffff021916908360010b61ffff160217905550816008600087815260200190815260200160002060030160006101000a81548179ffffffffffffffffffffffffffffffffffffffffffffffffffff021916908360301c0217905550610fab3385876120d6565b5050505050565b610fbd8383836120d6565b505050565b600060066000838152602001908152602001600020600201549050919050565b60058054600181600116156101000203166002900480601f0160208091040260200160405190810160405280929190818152602001828054600181600116156101000203166002900480156110785780601f1061104d57610100808354040283529160200191611078565b820191906000526020600020905b81548152906001019060200180831161105b57829003601f168201915b505050505081565b6110a760066000848152602001908152602001600020600201546110a26123ff565b61185d565b6110fc576040517f08c379a000000000000000000000000000000000000000000000000000000000815260040180806020018281038252602f815260200180612cc1602f913960400191505060405180910390fd5b6111068282612407565b5050565b6111126123ff565b73ffffffffffffffffffffffffffffffffffffffff168173ffffffffffffffffffffffffffffffffffffffff1614611195576040517f08c379a000000000000000000000000000000000000000000000000000000000815260040180806020018281038252602f815260200180612d70602f913960400191505060405180910390fd5b61119f828261249b565b5050565b6111be8383836040518060200160405280600081525061252f565b505050565b600760009054906101000a900473ffffffffffffffffffffffffffffffffffffffff1673ffffffffffffffffffffffffffffffffffffffff163373ffffffffffffffffffffffffffffffffffffffff1614611286576040517f08c379a000000000000000000000000000000000000000000000000000000000815260040180806020018281038252600a8152602001807f4f6e6c792041646d696e0000000000000000000000000000000000000000000081525060200191505060405180910390fd5b6112b07feefb95e842a3287179d933b4460be539a1d5af11aa8b325bb45c5c8dc92de4ed8261273e565b50565b60006001600083815260200190815260200160002060009054906101000a900473ffffffffffffffffffffffffffffffffffffffff169050919050565b60008060008373ffffffffffffffffffffffffffffffffffffffff1673ffffffffffffffffffffffffffffffffffffffff168152602001908152602001600020549050919050565b600760009054906101000a900473ffffffffffffffffffffffffffffffffffffffff1673ffffffffffffffffffffffffffffffffffffffff163373ffffffffffffffffffffffffffffffffffffffff16146113fb576040517f08c379a000000000000000000000000000000000000000000000000000000000815260040180806020018281038252600a8152602001807f4f6e6c792041646d696e0000000000000000000000000000000000000000000081525060200191505060405180910390fd5b6114257ffbd454f36a7e1a388bd6fc3ab10d434aa4578f811acbbcf33afb1c697486313c8261273e565b50565b6114527fb82a77b83aa57abb9bcfbacbdfb3201de26ecd2b35d0d6cf6c3b9bb2cb7026c43361185d565b6114c4576040517f08c379a000000000000000000000000000000000000000000000000000000000815260040180806020018281038252601b8152602001807f43616c6c6572206973206e6f742061205472616e73706f72746572000000000081525060200191505060405180910390fd5b823373ffffffffffffffffffffffffffffffffffffffff166114e5826112b3565b73ffffffffffffffffffffffffffffffffffffffff161461156e576040517f08c379a00000000000000000000000000000000000000000000000000000000081526004018080602001828103825260198152602001807f43616c6c6572206973206e6f74206120746865204f776e65720000000000000081525060200191505060405180910390fd5b826008600086815260200190815260200160002060020160066101000a81548161ffff021916908360010b61ffff160217905550816008600086815260200190815260200160002060030160006101000a81548179ffffffffffffffffffffffffffffffffffffffffffffffffffff021916908360301c021790555050505050565b61161a7feefb95e842a3287179d933b4460be539a1d5af11aa8b325bb45c5c8dc92de4ed3361185d565b61168c576040517f08c379a000000000000000000000000000000000000000000000000000000000815260040180806020018281038252601c8152602001807f43616c6c6572206973206e6f742061204d616e7566616374757265720000000081525060200191505060405180910390fd5b6116983360095461274c565b6040518060c0016040528060095481526020018581526020018479ffffffffffffffffffffffffffffffffffffffffffffffffffff191681526020018360010b81526020018265ffffffffffff19168152602001600073ffffffffffffffffffffffffffffffffffffffff16815250600860006009548152602001908152602001600020600082015181600001556020820151816001019080519060200190611742929190612c01565b5060408201518160020160006101000a81548165ffffffffffff021916908360d01c021790555060608201518160020160066101000a81548161ffff021916908360010b61ffff16021790555060808201518160030160006101000a81548179ffffffffffffffffffffffffffffffffffffffffffffffffffff021916908360301c021790555060a08201518160040160006101000a81548173ffffffffffffffffffffffffffffffffffffffff021916908373ffffffffffffffffffffffffffffffffffffffff16021790555090505060096000815480929190600101919050555050505050565b6000611855826006600086815260200190815260200160002060000161292090919063ffffffff16565b905092915050565b6000611887826006600086815260200190815260200160002060000161293a90919063ffffffff16565b905092915050565b7feefb95e842a3287179d933b4460be539a1d5af11aa8b325bb45c5c8dc92de4ed81565b7fb82a77b83aa57abb9bcfbacbdfb3201de26ecd2b35d0d6cf6c3b9bb2cb7026c481565b6000801b81565b80600360003373ffffffffffffffffffffffffffffffffffffffff1673ffffffffffffffffffffffffffffffffffffffff16815260200190815260200160002060008473ffffffffffffffffffffffffffffffffffffffff1673ffffffffffffffffffffffffffffffffffffffff16815260200190815260200160002060006101000a81548160ff0219169083151502179055508173ffffffffffffffffffffffffffffffffffffffff163373ffffffffffffffffffffffffffffffffffffffff167f17307eab39ab6107e8899845ad3d59bd9653f200f220920489ca2b5937696c318360405180821515815260200191505060405180910390a35050565b611a077ffbd454f36a7e1a388bd6fc3ab10d434aa4578f811acbbcf33afb1c697486313c3361185d565b611a79576040517f08c379a000000000000000000000000000000000000000000000000000000000815260040180806020018281038252601b8152602001807f43616c6c6572206973206e6f742061204469737472696275746f72000000000081525060200191505060405180910390fd5b336008600083815260200190815260200160002060040160006101000a81548173ffffffffffffffffffffffffffffffffffffffff021916908373ffffffffffffffffffffffffffffffffffffffff16021790555050565b600760009054906101000a900473ffffffffffffffffffffffffffffffffffffffff1673ffffffffffffffffffffffffffffffffffffffff163373ffffffffffffffffffffffffffffffffffffffff1614611b94576040517f08c379a000000000000000000000000000000000000000000000000000000000815260040180806020018281038252600a8152602001807f4f6e6c792041646d696e0000000000000000000000000000000000000000000081525060200191505060405180910390fd5b611bbe7fb82a77b83aa57abb9bcfbacbdfb3201de26ecd2b35d0d6cf6c3b9bb2cb7026c48261273e565b50565b611c1185858585858080601f016020809104026020016040519081016040528093929190818152602001838380828437600081840152601f19601f8201169050808301925050505050505061252f565b5050505050565b60606005826040516020018083805460018160011615610100020316600290048015611c7b5780601f10611c59576101008083540402835291820191611c7b565b820191906000526020600020905b815481529060010190602001808311611c67575b5050828152602001925050506040516020818303038152906040529050919050565b6000611cbd6006600084815260200190815260200160002060000161296a565b9050919050565b611ceb6006600084815260200190815260200160002060020154611ce66123ff565b61185d565b611d40576040517f08c379a0000000000000000000000000000000000000000000000000000000008152600401808060200182810382526030815260200180612d406030913960400191505060405180910390fd5b611d4a828261249b565b5050565b6000806000833373ffffffffffffffffffffffffffffffffffffffff166008600083815260200190815260200160002060040160009054906101000a900473ffffffffffffffffffffffffffffffffffffffff1673ffffffffffffffffffffffffffffffffffffffff1614611e0e576040517f08c379a0000000000000000000000000000000000000000000000000000000008152600401808060200182810382526028815260200180612cf06028913960400191505060405180910390fd5b6008600086815260200190815260200160002060020160069054906101000a900460010b6008600087815260200190815260200160002060030160009054906101000a900460301b611e5f876112b3565b935093509350509193909250565b6000600360008473ffffffffffffffffffffffffffffffffffffffff1673ffffffffffffffffffffffffffffffffffffffff16815260200190815260200160002060008373ffffffffffffffffffffffffffffffffffffffff1673ffffffffffffffffffffffffffffffffffffffff16815260200190815260200160002060009054906101000a900460ff16905092915050565b7ffbd454f36a7e1a388bd6fc3ab10d434aa4578f811acbbcf33afb1c697486313c81565b600760009054906101000a900473ffffffffffffffffffffffffffffffffffffffff1681565b60006001600083815260200190815260200160002060009054906101000a900473ffffffffffffffffffffffffffffffffffffffff1690508073ffffffffffffffffffffffffffffffffffffffff163373ffffffffffffffffffffffffffffffffffffffff1614612024576040517f08c379a000000000000000000000000000000000000000000000000000000000815260040180806020018281038252600e8152602001807f4e6f7420617574686f72697a656400000000000000000000000000000000000081525060200191505060405180910390fd5b826002600084815260200190815260200160002060006101000a81548173ffffffffffffffffffffffffffffffffffffffff021916908373ffffffffffffffffffffffffffffffffffffffff160217905550818373ffffffffffffffffffffffffffffffffffffffff168273ffffffffffffffffffffffffffffffffffffffff167f8c5be1e5ebec7d5bd14f71427d1e84f3dd0314c0f7b2291e5b200ac8c7c3b92560405160405180910390a4505050565b8060006001600083815260200190815260200160002060009054906101000a900473ffffffffffffffffffffffffffffffffffffffff1690503373ffffffffffffffffffffffffffffffffffffffff168173ffffffffffffffffffffffffffffffffffffffff1614806121a757503373ffffffffffffffffffffffffffffffffffffffff166002600084815260200190815260200160002060009054906101000a900473ffffffffffffffffffffffffffffffffffffffff1673ffffffffffffffffffffffffffffffffffffffff16145b8061223f575060011515600360008373ffffffffffffffffffffffffffffffffffffffff1673ffffffffffffffffffffffffffffffffffffffff16815260200190815260200160002060003373ffffffffffffffffffffffffffffffffffffffff1673ffffffffffffffffffffffffffffffffffffffff16815260200190815260200160002060009054906101000a900460ff161515145b6122b1576040517f08c379a00000000000000000000000000000000000000000000000000000000081526004018080602001828103825260178152602001807f5472616e73666572206e6f7420617574686f72697a656400000000000000000081525060200191505060405180910390fd5b60016000808773ffffffffffffffffffffffffffffffffffffffff1673ffffffffffffffffffffffffffffffffffffffff1681526020019081526020016000206000828254039250508190555060016000808673ffffffffffffffffffffffffffffffffffffffff1673ffffffffffffffffffffffffffffffffffffffff16815260200190815260200160002060008282540192505081905550836001600085815260200190815260200160002060006101000a81548173ffffffffffffffffffffffffffffffffffffffff021916908373ffffffffffffffffffffffffffffffffffffffff160217905550828473ffffffffffffffffffffffffffffffffffffffff168673ffffffffffffffffffffffffffffffffffffffff167fddf252ad1be2c89b69c2b068fc378daa952ba7f163c4a11628f55a4df523b3ef60405160405180910390a45050505050565b600033905090565b61242f816006600085815260200190815260200160002060000161297f90919063ffffffff16565b156124975761243c6123ff565b73ffffffffffffffffffffffffffffffffffffffff168173ffffffffffffffffffffffffffffffffffffffff16837f2f8788117e7eff1d82e926ec794901d17c78024a50270940304540a733656f0d60405160405180910390a45b5050565b6124c381600660008581526020019081526020016000206000016129af90919063ffffffff16565b1561252b576124d06123ff565b73ffffffffffffffffffffffffffffffffffffffff168173ffffffffffffffffffffffffffffffffffffffff16837ff6391f5c32d9c69d2a47ea670b442974b53935d1edc7fd64eb21e047a839171b60405160405180910390a45b5050565b61253a8484846120d6565b6125598373ffffffffffffffffffffffffffffffffffffffff166129df565b156127385760008373ffffffffffffffffffffffffffffffffffffffff1663150b7a02338786866040518563ffffffff1660e01b8152600401808573ffffffffffffffffffffffffffffffffffffffff1681526020018473ffffffffffffffffffffffffffffffffffffffff16815260200183815260200180602001828103825283818151815260200191508051906020019080838360005b8381101561260d5780820151818401526020810190506125f2565b50505050905090810190601f16801561263a5780820380516001836020036101000a031916815260200191505b5095505050505050602060405180830381600087803b15801561265c57600080fd5b505af1158015612670573d6000803e3d6000fd5b505050506040513d602081101561268657600080fd5b8101908080519060200190929190505050905063150b7a0260e01b7bffffffffffffffffffffffffffffffffffffffffffffffffffffffff1916817bffffffffffffffffffffffffffffffffffffffffffffffffffffffff191614612736576040517f08c379a0000000000000000000000000000000000000000000000000000000008152600401808060200182810382526028815260200180612d186028913960400191505060405180910390fd5b505b50505050565b6127488282612407565b5050565b600073ffffffffffffffffffffffffffffffffffffffff166001600083815260200190815260200160002060009054906101000a900473ffffffffffffffffffffffffffffffffffffffff1673ffffffffffffffffffffffffffffffffffffffff1614612821576040517f08c379a000000000000000000000000000000000000000000000000000000000815260040180806020018281038252601a8152602001807f5468697320746f6b656e20616c72656164792065786973742e2e00000000000081525060200191505060405180910390fd5b816001600083815260200190815260200160002060006101000a81548173ffffffffffffffffffffffffffffffffffffffff021916908373ffffffffffffffffffffffffffffffffffffffff16021790555060016000808473ffffffffffffffffffffffffffffffffffffffff1673ffffffffffffffffffffffffffffffffffffffff16815260200190815260200160002060008282540192505081905550808273ffffffffffffffffffffffffffffffffffffffff16600073ffffffffffffffffffffffffffffffffffffffff167fddf252ad1be2c89b69c2b068fc378daa952ba7f163c4a11628f55a4df523b3ef60405160405180910390a45050565b600061292f83600001836129f2565b60001c905092915050565b6000612962836000018373ffffffffffffffffffffffffffffffffffffffff1660001b612a75565b905092915050565b600061297882600001612a98565b9050919050565b60006129a7836000018373ffffffffffffffffffffffffffffffffffffffff1660001b612aa9565b905092915050565b60006129d7836000018373ffffffffffffffffffffffffffffffffffffffff1660001b612b19565b905092915050565b600080823b905060008111915050919050565b600081836000018054905011612a53576040517f08c379a0000000000000000000000000000000000000000000000000000000008152600401808060200182810382526022815260200180612c9f6022913960400191505060405180910390fd5b826000018281548110612a6257fe5b9060005260206000200154905092915050565b600080836001016000848152602001908152602001600020541415905092915050565b600081600001805490509050919050565b6000612ab58383612a75565b612b0e578260000182908060018154018082558091505060019003906000526020600020016000909190919091505582600001805490508360010160008481526020019081526020016000208190555060019050612b13565b600090505b92915050565b60008083600101600084815260200190815260200160002054905060008114612bf55760006001820390506000600186600001805490500390506000866000018281548110612b6457fe5b9060005260206000200154905080876000018481548110612b8157fe5b9060005260206000200181905550600183018760010160008381526020019081526020016000208190555086600001805480612bb957fe5b60019003818190600052602060002001600090559055866001016000878152602001908152602001600020600090556001945050505050612bfb565b60009150505b92915050565b828054600181600116156101000203166002900490600052602060002090601f016020900481019282601f10612c4257805160ff1916838001178555612c70565b82800160010185558215612c70579182015b82811115612c6f578251825591602001919060010190612c54565b5b509050612c7d9190612c81565b5090565b5b80821115612c9a576000816000905550600101612c82565b509056fe456e756d657261626c655365743a20696e646578206f7574206f6620626f756e6473416363657373436f6e74726f6c3a2073656e646572206d75737420626520616e2061646d696e20746f206772616e7443616c6c6572206973206e6f74207468652052657175657374696e67204469737472696275746f72726563697069656e742053432063616e6e6f742068616e646c652045524337323120746f6b656e73416363657373436f6e74726f6c3a2073656e646572206d75737420626520616e2061646d696e20746f207265766f6b65416363657373436f6e74726f6c3a2063616e206f6e6c792072656e6f756e636520726f6c657320666f722073656c66a2646970667358221220f7938627c23be5f8f1408b01b0331365540af38ddd183b6352904d5b93fae51564736f6c63430007010033",
  "immutableReferences": {},
  "source": "// SPDX-License-Identifier: MIT\r\n\r\npragma solidity ^0.7.0;\r\n//pragma experimental ABIEncoderV2;\r\n\r\nimport '@openzeppelin/contracts/access/AccessControl.sol';\r\nimport './ERC721Token.sol';\r\n\r\ncontract SupplyChain is ERC721Token, AccessControl {\r\n    using Address for address;\r\n\r\n    bytes32 public constant MANUFACTURER_ROLE = keccak256(\"MANUFACTURER_ROLE\");\r\n    bytes32 public constant TRANSPORT_ROLE = keccak256(\"TRANSPORT_ROLE\");\r\n    bytes32 public constant DISTRIBUTOR_ROLE = keccak256(\"DISTRIBUTOR_ROLE\");\r\n\r\n    address public admin;\r\n\r\n    struct Vaccine {\r\n        uint256 id;\r\n        string manufacturer;\r\n        bytes6 serialno;\r\n        int16 thermal;\r\n        bytes26 location;\r\n        address requestingDistributor;\r\n    }\r\n\r\n    mapping(uint256 => Vaccine) private vaccines;\r\n    uint256 private nextId;\r\n\r\n    constructor(string memory _tokenURIBase) public ERC721Token(_tokenURIBase) {\r\n        admin = msg.sender;\r\n    }\r\n\r\n    modifier onlyAdmin() {\r\n        require(msg.sender == admin, \"Only Admin\");\r\n        _;\r\n    }\r\n\r\n    modifier onlyManufacturer() {\r\n        require(\r\n            super.hasRole(MANUFACTURER_ROLE, msg.sender),\r\n            \"Caller is not a Manufacturer\"\r\n        );\r\n        _;\r\n    }\r\n\r\n    modifier onlyTransporter() {\r\n        require(\r\n            super.hasRole(TRANSPORT_ROLE, msg.sender),\r\n            \"Caller is not a Transporter\"\r\n        );\r\n        _;\r\n    }\r\n\r\n    modifier onlyDistributor() {\r\n        require(\r\n            super.hasRole(DISTRIBUTOR_ROLE, msg.sender),\r\n            \"Caller is not a Distributor\"\r\n        );\r\n        _;\r\n    }\r\n\r\n    modifier onlyRequestingDistributor(uint256 _id) {\r\n        require(\r\n            vaccines[_id].requestingDistributor == msg.sender,\r\n            \"Caller is not the Requesting Distributor\"\r\n        );\r\n        _;\r\n    }\r\n\r\n    modifier onlyOwner(uint256 _id) {\r\n        require(super.ownerOf(_id) == msg.sender, \"Caller is not a the Owner\");\r\n        _;\r\n    }\r\n\r\n    function addManufacturer(address manufacturer) public onlyAdmin() {\r\n        super._setupRole(MANUFACTURER_ROLE, manufacturer);\r\n    }\r\n\r\n    function addTransporter(address transporter) public onlyAdmin() {\r\n        super._setupRole(TRANSPORT_ROLE, transporter);\r\n    }\r\n\r\n    function addDistributor(address distributor) public onlyAdmin() {\r\n        super._setupRole(DISTRIBUTOR_ROLE, distributor);\r\n    }\r\n\r\n    function makeVaccine(\r\n        string memory _manufacturer,\r\n        bytes6 _serialno,\r\n        int16 _thermal,\r\n        bytes26 _location\r\n    ) public onlyManufacturer() {\r\n        super._mint(msg.sender, nextId);\r\n        vaccines[nextId] = Vaccine(\r\n            nextId,\r\n            _manufacturer,\r\n            _serialno,\r\n            _thermal,\r\n            _location,\r\n            address(0)\r\n        );\r\n        nextId++;\r\n    }\r\n\r\n    function orderVaccine(uint256 _id) public onlyDistributor() {\r\n        vaccines[_id].requestingDistributor = msg.sender;\r\n    }\r\n\r\n    function thermalMonitor(\r\n        uint256 _id,\r\n        int16 _thermal,\r\n        bytes26 _location\r\n    ) public onlyTransporter() onlyOwner(_id) {\r\n        vaccines[_id].thermal = _thermal;\r\n        vaccines[_id].location = _location;\r\n    }\r\n\r\n    function transferVaccine(\r\n        uint256 _id,\r\n        address _to,\r\n        int16 _thermal,\r\n        bytes26 _location\r\n    ) public onlyOwner(_id) {\r\n        vaccines[_id].thermal = _thermal;\r\n        vaccines[_id].location = _location;\r\n        super._transfer(msg.sender, _to, _id);\r\n    }\r\n\r\n    function getVaccineTrackingInfo(uint256 _id)\r\n        public\r\n        view\r\n        onlyRequestingDistributor(_id)\r\n        returns (\r\n            int16,\r\n            bytes26,\r\n            address\r\n        )\r\n    {\r\n        return (\r\n            vaccines[_id].thermal,\r\n            vaccines[_id].location,\r\n            super.ownerOf(_id)\r\n        );\r\n    }\r\n}",
  "sourcePath": "C:/work/blockchain_course/semester2/design_patterns/final_project/smart_contract/contracts/SupplyChain.sol",
  "compiler": {
    "name": "solc",
    "version": "0.7.1+commit.f4a555be.Emscripten.clang"
  },
  "schemaVersion": "3.3.3",
  "updatedAt": "2021-02-12T22:20:00.484Z",
  "devdoc": {
    "kind": "dev",
    "methods": {
      "approve(address,uint256)": {
        "details": "The zero address indicates there is no approved address.  Throws unless `msg.sender` is the current NFT owner, or an authorized  operator of the current owner.",
        "params": {
          "_approved": "The new approved NFT controller",
          "_tokenId": "The NFT to approve"
        }
      },
      "balanceOf(address)": {
        "details": "NFTs assigned to the zero address are considered invalid, and this  function throws for queries about the zero address.",
        "params": {
          "_owner": "An address for whom to query the balance"
        },
        "returns": {
          "_0": "The number of NFTs owned by `_owner`, possibly zero"
        }
      },
      "getApproved(uint256)": {
        "details": "Throws if `_tokenId` is not a valid NFT.",
        "params": {
          "_tokenId": "The NFT to find the approved address for"
        },
        "returns": {
          "_0": "The approved address for this NFT, or the zero address if there is none"
        }
      },
      "getRoleAdmin(bytes32)": {
        "details": "Returns the admin role that controls `role`. See {grantRole} and {revokeRole}. To change a role's admin, use {_setRoleAdmin}."
      },
      "getRoleMember(bytes32,uint256)": {
        "details": "Returns one of the accounts that have `role`. `index` must be a value between 0 and {getRoleMemberCount}, non-inclusive. Role bearers are not sorted in any particular way, and their ordering may change at any point. WARNING: When using {getRoleMember} and {getRoleMemberCount}, make sure you perform all queries on the same block. See the following https://forum.openzeppelin.com/t/iterating-over-elements-on-enumerableset-in-openzeppelin-contracts/2296[forum post] for more information."
      },
      "getRoleMemberCount(bytes32)": {
        "details": "Returns the number of accounts that have `role`. Can be used together with {getRoleMember} to enumerate all bearers of a role."
      },
      "grantRole(bytes32,address)": {
        "details": "Grants `role` to `account`. If `account` had not been already granted `role`, emits a {RoleGranted} event. Requirements: - the caller must have ``role``'s admin role."
      },
      "hasRole(bytes32,address)": {
        "details": "Returns `true` if `account` has been granted `role`."
      },
      "isApprovedForAll(address,address)": {
        "params": {
          "_operator": "The address that acts on behalf of the owner",
          "_owner": "The address that owns the NFTs"
        },
        "returns": {
          "_0": "True if `_operator` is an approved operator for `_owner`, false otherwise"
        }
      },
      "ownerOf(uint256)": {
        "details": "NFTs assigned to zero address are considered invalid, and queries  about them do throw.",
        "params": {
          "_tokenId": "The identifier for an NFT"
        },
        "returns": {
          "_0": "The address of the owner of the NFT"
        }
      },
      "renounceRole(bytes32,address)": {
        "details": "Revokes `role` from the calling account. Roles are often managed via {grantRole} and {revokeRole}: this function's purpose is to provide a mechanism for accounts to lose their privileges if they are compromised (such as when a trusted device is misplaced). If the calling account had been granted `role`, emits a {RoleRevoked} event. Requirements: - the caller must be `account`."
      },
      "revokeRole(bytes32,address)": {
        "details": "Revokes `role` from `account`. If `account` had been granted `role`, emits a {RoleRevoked} event. Requirements: - the caller must have ``role``'s admin role."
      },
      "safeTransferFrom(address,address,uint256)": {
        "details": "This works identically to the other function with an extra data parameter,  except this function just sets data to \"\".",
        "params": {
          "_from": "The current owner of the NFT",
          "_to": "The new owner",
          "_tokenId": "The NFT to transfer"
        }
      },
      "safeTransferFrom(address,address,uint256,bytes)": {
        "details": "Throws unless `msg.sender` is the current owner, an authorized  operator, or the approved address for this NFT. Throws if `_from` is  not the current owner. Throws if `_to` is the zero address. Throws if  `_tokenId` is not a valid NFT. When transfer is complete, this function  checks if `_to` is a smart contract (code size > 0). If so, it calls  `onERC721Received` on `_to` and throws if the return value is not  `bytes4(keccak256(\"onERC721Received(address,address,uint256,bytes)\"))`.",
        "params": {
          "_from": "The current owner of the NFT",
          "_to": "The new owner",
          "_tokenId": "The NFT to transfer",
          "data": "Additional data with no specified format, sent in call to `_to`"
        }
      },
      "setApprovalForAll(address,bool)": {
        "details": "Emits the ApprovalForAll event. The contract MUST allow  multiple operators per owner.",
        "params": {
          "_approved": "True if the operator is approved, false to revoke approval",
          "_operator": "Address to add to the set of authorized operators"
        }
      },
      "transferFrom(address,address,uint256)": {
        "details": "Throws unless `msg.sender` is the current owner, an authorized  operator, or the approved address for this NFT. Throws if `_from` is  not the current owner. Throws if `_to` is the zero address. Throws if  `_tokenId` is not a valid NFT.",
        "params": {
          "_from": "The current owner of the NFT",
          "_to": "The new owner",
          "_tokenId": "The NFT to transfer"
        }
      }
    },
    "version": 1
  },
  "userdoc": {
    "kind": "user",
    "methods": {
      "approve(address,uint256)": {
        "notice": "Change or reaffirm the approved address for an NFT"
      },
      "balanceOf(address)": {
        "notice": "Count all NFTs assigned to an owner"
      },
      "getApproved(uint256)": {
        "notice": "Get the approved address for a single NFT"
      },
      "isApprovedForAll(address,address)": {
        "notice": "Query if an address is an authorized operator for another address"
      },
      "ownerOf(uint256)": {
        "notice": "Find the owner of an NFT"
      },
      "safeTransferFrom(address,address,uint256)": {
        "notice": "Transfers the ownership of an NFT from one address to another address"
      },
      "safeTransferFrom(address,address,uint256,bytes)": {
        "notice": "Transfers the ownership of an NFT from one address to another address"
      },
      "setApprovalForAll(address,bool)": {
        "notice": "Enable or disable approval for a third party (\"operator\") to manage  all of `msg.sender`'s assets"
      },
      "transferFrom(address,address,uint256)": {
        "notice": "Transfer ownership of an NFT -- THE CALLER IS RESPONSIBLE  TO CONFIRM THAT `_to` IS CAPABLE OF RECEIVING NFTS OR ELSE  THEY MAY BE PERMANENTLY LOST"
      }
    },
    "version": 1
  }
}